:020000040800F2
:1000000078840020450100084D0100084F010008D8
:1000100051010008530100085501000800000000CC
:100020000000000000000000000000005701000870
:1000300059010008000000005B0100085D01000894
:100040005F0100085F0100085F0100085F01000810
:100050005F0100085F0100085F0100085F01000800
:100060005F0100085F0100085F0100085F010008F0
:100070005F0100085F0100085F0100085F010008E0
:100080005F0100085F0100085F0100085F010008D0
:100090005F0100085F0100085F0100085F010008C0
:1000A0005F0100085F0100085F0100085F010008B0
:1000B0005F0100085F0100085F0100085F010008A0
:1000C0005F0100085F0100085F0100085F01000890
:1000D0005F010008B12900085F010008F928000845
:1000E0005F0100085F0100085F0100085F01000870
:1000F0005F0100085F0100085F0100085F01000860
:100100005F0100085F0100085F0100085F0100084F
:100110005F0100085F010008192400085F01000862
:100120005F0100085F0100085F0100085F0100082F
:10013000DFF80CD003F0D2FA00480047ED230008A6
:10014000788400200648804706480047FEE7FEE71F
:10015000FEE7FEE7FEE7FEE7FEE7FEE7FEE7FEE777
:1001600047020008310100080CB500200190009002
:100170006C48006840F480306A49086000BF6948F4
:10018000006800F4003000900198401C0190009835
:1001900018B90198B0F5A06FF1D16248006800F479
:1001A000003010B10120009001E000200090009884
:1001B000012843D15C48006840F010005A490860AB
:1001C0000846006820F0030008600846006840F018
:1001D0000200086053484068524948600846406839
:1001E00048600846406840F48060486008464068BF
:1001F00020F47C1048600846406840F4E8104860ED
:100200000846006840F08070086000BF45480068FC
:1002100000F000700028F9D04248406820F0030048
:10022000404948600846406840F00200486000BF0E
:100230003C48406800F00C000828F9D10CBD10B50E
:10024000FFF792FF10BD10B53648006840F001007E
:1002500034490860084640683449084031494860DC
:1002600008460068324908402E4908600846006880
:1002700020F4802008600846406820F4FE004860B2
:100280004FF41F008860FFF7DAFF4FF00060294944
:10029000086010BD10B5002100200022214B5B68D2
:1002A00003F00C0121B1042906D0082928D107E068
:1002B000214B224C236027E01F4B204C236023E07E
:1002C000184B5B6803F47010164B5B6803F48032C4
:1002D000022303EB904022B9194B4343174C236090
:1002E0000DE0104B5B6803F4003323B1144B434320
:1002F000124C236003E0104B4343104C236003E097
:100300000D4B0E4C236000BF00BF064B5B68C3F370
:1003100003130C4CE15C094B1B68CB40074C23607A
:1003200010BD000000100240002002400000FFF855
:10033000FFFFF6FE08ED00E000127A00000000204A
:1003400000093D000400002031490143314A116099
:10035000704770B5002100230F22C47804B32D4CE0
:10036000246804F4E064C4F5E064210AC1F10403E4
:10037000CA40447804FA03F1847814402143090107
:10038000254C0678A155047804F01F050124AC40E3
:1003900005786D11AD0005F1E025C5F8004109E0D3
:1003A000047804F01F050124AC401C4D067876113A
:1003B00045F8264070BD1A4A0A400243154B1B1FE0
:1003C0001A60704739B1134A121D12680243114B6B
:1003D0001B1D1A6006E00F4A121D126882430D4B66
:1003E0001B1D1A607047042808D14FF0E0210969ED
:1003F00041F004014FF0E022116107E04FF0E021ED
:10040000096921F004014FF0E022116170470000FA
:100410000000FA050CED00E000E400E080E100E0FF
:1004200080FFFF1F10B50446FA48844208D101211D
:10043000401500F07FFE0021601500F07BFE17E004
:10044000F548844208D10121001500F073FE002117
:10045000201500F06FFE0BE0F048844208D1012126
:10046000C80300F067FE00214FF4004000F062FE78
:1004700010BD30B50246002000235068E84C2040F3
:100480000D790C6844EA0524204350609068E54CDF
:100490002040D1E902542C434D7944EA45042043DD
:1004A0009060D06A20F470000C7C641EE4B2234398
:1004B00040EA0350D06230BD0021016001714171FA
:1004C0008160C16001210174704721B1826842F0EE
:1004D0000102826003E0826822F0010282607047BC
:1004E00021B1826842F48072826003E0826822F463
:1004F00080728260704710B50023CBB21AB1446895
:100500001C43446002E044689C43446010BD816821
:1005100041F0080181607047014600208A6802F0BE
:1005200008020AB1012000E000207047816841F014
:10053000040181607047014600208A6802F00402CD
:100540000AB1012000E00020704721B1826842F426
:10055000A002826003E0826822F4A00282607047F9
:10056000014600208A6802F480020AB1012000E0FE
:100570000020704710B50A4600210023416821F48D
:100580006041531E41EA4331416010BD21B14268D0
:1005900042F40062426003E0426822F4006242607A
:1005A0007047F0B504460D4600200021092D11DDED
:1005B000E068A5F10A0606EB4607072606FA07F1EA
:1005C0008843A5F10A0606EB460603FA06F108433E
:1005D000E0600CE0206905EB4507072606FA07F105
:1005E000884305EB450603FA06F108432061072A14
:1005F0000FDA606B561E06EB86071F2606FA07F118
:100600008843561E06EB860605FA06F1084360632A
:1006100022E00D2A0FDA206BD61F06EB86071F2675
:1006200006FA07F18843D61F06EB860605FA06F19F
:100630000843206310E0E06AA2F10D0606EB86078E
:100640001F2606FA07F18843A2F10D0606EB86067F
:1006500005FA06F10843E062F0BD21B1826842F478
:100660008012826003E0826822F480128260704708
:100670000146C86C80B2704766484C3000687047CD
:1006800021B1426842F48062426003E0426822F491
:1006900080624260704721B1426842F480524260F9
:1006A00003E0426822F48052426070470A4600210B
:1006B000816821F4E04111438160704721B1826873
:1006C00042F40042826003E0826822F400428260C9
:1006D000704721B1826842F40212826003E08268AE
:1006E00022F4021282607047014600208A6802F4F8
:1006F00000120AB1012000E000207047F0B5044666
:100700001546002000220026092911DDE068A1F12C
:100710000A0707EB470C072707FA0CF29043A1F1F1
:100720000A0707EB470703FA07F21043E0600CE003
:10073000206901EB410C072707FA0CF2904301EB0B
:10074000410703FA07F210432061A06BC0F3015682
:10075000EF1C06F1010CA7EB0C0707EB870C1F271A
:1007600007FA0CF29043EF1C06F1010CA7EB0C0703
:1007700007EB870701FA07F21043A063F0BD10B53D
:100780000A4600210023816B21F44011531E41EAE7
:100790000351816310BD08B5002300930090009BB6
:1007A0000B440093009B1A6008BD08B50246002068
:1007B0000090009201F12800009B184400900098DE
:1007C000006880B208BD0A4600214168164B1940F6
:1007D0001143416070474162826270470A460021BE
:1007E000416821F01F0111434160704740B1094940
:1007F0000831096841F40001064A0832116007E037
:1008000004490831096821F40001024A08321160E4
:10081000704700000024014000280140003C0140D6
:10082000FFFEF0FFFDF7F1FFFFFD3FFF0246002056
:1008300013680B400BB1012000E000207047CA4351
:100840000260704770B502460020002300240B129E
:100850005568CEB205EA060415681D4015B10CB105
:10086000012000E0002070BD00220A12D343036083
:100870007047000001684FF6FE72114001600021D0
:10088000016041608160C1608D49884208D18C4916
:100890000839496841F00F01894A083A51608AE0F5
:1008A00087491431884208D185490839496841F09F
:1008B000F001834A083A51607DE08149283188423D
:1008C00008D17F490839496841F470617C4A083A87
:1008D000516070E07A493C31884208D17849083942
:1008E000496841F47041764A083A516063E07449BE
:1008F0005031884208D172490839496841F4702161
:100900006F4A083A516056E06D496431884208D117
:100910006B490839496841F47001694A083A5160E5
:1009200049E067497831884208D165490839496802
:1009300041F07061624A083A51603CE06149884286
:1009400006D1011F096841F00F01021F116032E05A
:100950005C491431884208D15A49091F096841F09D
:10096000F001584A121F116025E05649283188428B
:1009700008D15449091F096841F47061514A121F96
:10098000116018E04F493C31884208D14D49091F98
:10099000096841F470414B4A121F11600BE049494C
:1009A0005031884207D14749091F096841F4702135
:1009B000444A121F1160704710B50022026847F6C2
:1009C000F0739A430C6A8B6823430C6923434C6988
:1009D00023438C692343CC6923434C6A23438C6AA9
:1009E00023431A430260CB6843600B6883604B6803
:1009F000C36010BD0021016041608160C160016180
:100A000041618161C161016241628162704721B1CE
:100A1000026842F00102026004E002684FF6FE73D1
:100A20001A40026070471AB103680B43036002E08A
:100A300003688B4303607047416070470146486814
:100A400080B2704701460020002201F080531BB1A4
:100A50001C4B083B1A6802E0194B083B1A6802EA73
:100A600001030BB1012000E00020704700F080512D
:100A700019B11449091F086002E01149083948609A
:100A8000704701460020002201F080531BB10D4B3E
:100A9000083B1A6802E00A4B083B1A6802EA0103A5
:100AA0000BB1012000E00020704700F0805119B127
:100AB0000449091F086002E001490839486070478D
:100AC000080002400804024010B50446CC488442A5
:100AD00008D10121042000F02DFB0021042000F0AA
:100AE00029FB46E0C748844208D10121082000F0D4
:100AF00021FB0021082000F01DFB3AE0C24884429F
:100B000008D10121102000F015FB0021102000F079
:100B100011FB2EE0BD48844208D10121202000F0C5
:100B200009FB0021202000F005FB22E0B8488442A8
:100B300008D10121402000F0FDFA0021402000F002
:100B4000F9FA16E0B348844208D10121802000F070
:100B5000F1FA0021802000F0EDFA0AE0AE4884426C
:100B600007D10121801500F0E5FA0021A01500F061
:100B7000E1FA10BD10B50121084600F0DBFA0021B2
:100B8000012000F0D7FA10BD2DE9F0410246002502
:100B90000026002000230024002791F803C00CF059
:100BA0000F0591F803C00CF0100CBCF1000F03D03E
:100BB00091F802C04CEA050591F800C0BCF1000FA5
:100BC00031D0146800202BE04FF0010C0CFA00F338
:100BD000B1F800C00CEA03069E4220D183004FF01A
:100BE0000F0C0CFA03F7BC4305FA03FC4CEA0404AF
:100BF00091F803C0BCF1280F06D14FF0010C0CFA9C
:100C000000FCC2F814C00AE091F803C0BCF1480F20
:100C100005D14FF0010C0CFA00FCC2F810C0401CCA
:100C20000828D1D31460B1F800C0BCF1FF0F34DD47
:100C3000546800202EE000F1080C4FF0010808FA7B
:100C40000CF3B1F800C00CEA03069E4221D18300E8
:100C50004FF00F0C0CFA03F7BC4305FA03FC4CEA07
:100C6000040491F803C0BCF1280F05D100F1080C71
:100C700008FA0CF8C2F8148091F803C0BCF1480FD0
:100C800007D100F1080C4FF0010808FA0CF8C2F87F
:100C90001080401C0828CED35460BDE8F0814FF688
:100CA000FF710180022181700421C17070470246EA
:100CB000002093680B400BB1012000E0002070473A
:100CC0000146886880B2704702460020D3680B4016
:100CD0000BB1012000E0002070470146C86880B2D7
:100CE000704701617047416170470AB1016100E0DE
:100CF00041617047C16070474FF480320A4382619E
:100D00008161826182698269704702460020434B9B
:100D100018684FF68073184040EA021008433F4BB2
:100D2000186070473E49C8617047F0B50A46002315
:100D300000240021002500F00046B6F1004F02D14A
:100D4000364EF16901E0354E7168C0F3034583B258
:100D500000F44016B6F5401F08D121F070612F4E07
:100D6000766826F070662D4F7E6012E000F48016E3
:100D7000B6F5801F06D1032606FA05F4A14341F01B
:100D8000706106E0460D360103FA06F6B14341F004
:100D9000706122B1460D360103FA06F6314300F0C8
:100DA0000046B6F1004F02D11C4EF16101E01B4E2E
:100DB0007160F0BD30B500228B071C0F0F2303FAC2
:100DC00004F2164B08338C1053F824309343134C21
:100DD00008348D1044F8253023468C1053F8243005
:100DE0008C07240F00FA04F423430C4C08348D10B4
:100DF00044F8253030BD0A49DC31086070470000F6
:100E000000080140000C01400010014000140140A6
:100E100000180140001C014000200140000001407A
:100E200000002042DF48006840F00100DD49086012
:100E300008464068DC490840DA49486008460068CE
:100E4000DA490840D74908600846006820F4802045
:100E500008600846406820F4FE0048604FF41F0018
:100E600088607047CF49096821F48031CD4A11600C
:100E70001146096821F480211160B0F5803F03D04C
:100E8000B0F5802F0ED106E0C649096841F48031E3
:100E9000C44A116007E0C349096841F4A021C14A6E
:100EA000116000E000BF00BF704710B5014600228E
:100EB000002300204A11012A02D1BA4C236806E01F
:100EC000022A02D1B74C236A01E0B64C636A01F0F2
:100ED0001F02012494401C400CB1012000E00020BE
:100EE00010BD38B5002000900024002500BF31203F
:100EF000FFF7DBFF05460098401C00900098B0F516
:100F0000A06F01D0002DF2D03120FFF7CEFF08B145
:100F1000012400E00024204638BD01460020A14AFB
:100F2000106820F0F80040EAC10010607047A04946
:100F300008607047024600209A4B586820F47C10E5
:100F400042EA01031843974B586070479849086676
:100F5000704701460020934A506820F00300084380
:100F6000506070478F48406800F00C0070470146A1
:100F700000208C4A506820F0F00008435060704711
:100F800001460020874A506820F4E0600843506022
:100F9000704701460020834A506820F4605040EAC0
:100FA000C1005060704729B17E4A527A02437D4B9E
:100FB0005A7204E07B4A527A82437A4B5A727047E3
:100FC0007B49D8310860704701460020754A506857
:100FD00020F440400843506070470021714A20329D
:100FE0001170704A82F82010012802D004280AD11A
:100FF00004E001216B4A2032117005E00521694AA5
:101000002032117000E000BF00BF704769490860DE
:1010100070476449096A0143624A11627047654931
:1010200044390860704730B50021002200240023B5
:101030005C4D6D6805F00C0121B1042905D008292B
:1010400023D105E05C4D056022E05B4D05601FE0AB
:10105000544D6D6805F47012524D6D6805F480347E
:10106000022505EB92421CB9544D554305600BE037
:101070004C4D6D6805F400351DB1504D554305606C
:1010800002E04D4D5543056002E04B4D056000BF49
:1010900000BF444D6D6805F0F0010909484D6B5CD7
:1010A0000568DD4045603F4D6D6805F4E061090A63
:1010B000434D6B5C4568DD4085603A4D6D6805F4D5
:1010C0006051C90A3E4D6B5C4568DD40C560354DD9
:1010D0006D6805F44041890B3A4D6B5CC568B5FB02
:1010E000F3F5056130BD29B12E4A526902432D4BFB
:1010F0005A6104E02B4A526982432A4B5A61704775
:1011000029B1284A92690243264B9A6104E0254A94
:1011100092698243234B9A61704729B1214AD2696F
:101120000243204BDA6104E01E4AD26982431D4B20
:10113000DA61704729B11B4AD2680243194BDA6061
:1011400004E0184AD2688243164BDA60704729B12E
:10115000144A12690243134B1A6104E0114A1269DE
:101160008243104B1A61704712494039086070473A
:101170000F49C86470470B49C87170470948406AF5
:1011800040F0807007494862704701460020054AD8
:1011900092680A400AB1012000E00020704701492E
:1011A00088727047001002400000FFF8FFFFF6FE53
:1011B000000042428004424200127A0000093D00D1
:1011C000140000202400002010B50446FE4884428C
:1011D00008D10121C014FFF7ADFF0021E014FFF793
:1011E000A9FFC4E0B4F1804F08D101210846FFF700
:1011F000AEFF00210120FFF7AAFFB8E0F3488442C8
:1012000008D101210220FFF7A2FF00210220FFF7F1
:101210009EFFACE0EE48844208D101210420FFF794
:1012200096FF00210420FFF792FFA0E0E9488442E6
:1012300008D101210820FFF78AFF00210820FFF7CD
:1012400086FF94E0E448844208D101211020FFF792
:101250007EFF00211020FFF77AFF88E0DF488442FC
:1012600008D101212020FFF772FF00212020FFF785
:101270006EFF7CE0DA48844208D101214014FFF778
:1012800059FF00216014FFF755FF70E0D5488442F4
:1012900009D10121C804FFF74DFF00214FF40020C0
:1012A000FFF748FF63E0D048844209D101210805D7
:1012B000FFF740FF00214FF48010FFF73BFF56E09F
:1012C000CA48844209D101214805FFF733FF0021B4
:1012D0004FF40010FFF72EFF49E0C548844208D1C3
:1012E00001214020FFF733FF00214020FFF72FFFAF
:1012F0003DE0C048844208D101218020FFF727FF4C
:1013000000218020FFF723FF31E0BB48844208D151
:1013100001218015FFF71BFF0021A015FFF717FF24
:1013200025E0B648844209D101210804FFF702FFF5
:1013300000214FF48030FFF7FDFE18E0B0488442F2
:1013400009D101214804FFF7F5FE00214FF40030D8
:10135000FFF7F0FE0BE0AB48844208D1012188047E
:10136000FFF7E8FE00214FF48020FFF7E3FE10BDF9
:1013700000220288944B98420ED0994B98420BD091
:10138000B0F1804F08D0914B984205D0904B9842D5
:1013900002D0904B984204D14FF68F731A404B887D
:1013A0001A438D4B984207D08C4B984204D04FF68D
:1013B000FF431A40CB881A4302808B8883850B88B1
:1013C0000385814B98420BD0854B984208D08B4BBC
:1013D000984205D08A4B984202D08A4B984201D15C
:1013E0000B7A038601238382704770B500240022A4
:1013F0000023058C4FF6FE7635400584028C8388E9
:10140000048B4FF68F752C40B51E2C400D882C4355
:10141000751E2A400D892A434D882A436A4DA842E9
:101420000BD06F4DA84208D0744DA84205D0744D22
:10143000A84202D0734DA84213D14FF6F7752A4047
:101440004D892A434FF6FB752A408D882A434FF673
:10145000FF652B404FF6FF552B408D892B43CD89DF
:101460002B4383800483CD888586028470BD70B54C
:10147000002400220023058C4FF6EF7635400584CA
:10148000028C8388048B48F6FF752C404FF6FF458D
:101490002C400D884FF6FF7606EA05252C434FF6C3
:1014A000DF752A400D8906EA05152A434D8806EAAC
:1014B00005152A43444DA84202D0494DA8421DD1EA
:1014C0004FF67F752A404D894FF6FF7606EA0515DF
:1014D0002A434FF6BF752A408D8806EA05152A4330
:1014E0004FF6FF352B404FF2FF752B408D8906EAF2
:1014F00085052B43CD8906EA85052B43838004832C
:10150000CD880587028470BD70B5002400220023B9
:10151000058C4FF6FF6635400584028C8388848BEA
:101520004FF68F752C404FF6FC752C400D882C43E0
:101530004FF6FF552A400D894FF6FF7606EA05253E
:101540002A434D8806EA05252A431F4DA84202D0AA
:10155000234DA8421DD14FF2FF752A404D894FF609
:10156000FF7606EA05252A434FF6FF352A408D8887
:1015700006EA05252A434EF6FF752B404DF6FF750A
:101580002B408D8906EA05152B43CD8906EA051502
:101590002B4383808483CD888587028470BD70B59A
:1015A000002200230024058C4EF6FF76354005848A
:1015B000038C8488828B48F6FF752A404FF6FF45DE
:1015C0002A400D8820E00000002C0140000400406B
:1015D00000080040000C00400010004000140040D3
:1015E00000340140004C01400050014000540140D3
:1015F00000180040001C0040002000400040014056
:1016000000440140004801404FF6FF7606EA0525F8
:101610002A434DF6FF752B400D8906EA05352B430D
:101620004D8806EA05352B43FA4DA84202D0FA4D03
:10163000A84208D14BF6FF752C408D894FF6FF76F6
:1016400006EA85152C4384808283CD88A0F840501B
:10165000038470BD828B4FF2FF331A408283828BEA
:101660004FF6FF7303EA01231A4382837047F0B5F4
:101670000C461546002200210026078C4EF6FF7C02
:1016800007EA0C070784828B018C4FF6FF7707EA85
:10169000043640F6FF473A404FF6FF7707EA052742
:1016A0003A434FF6FF7707EA03373A43D94FB84238
:1016B0000ED0D94FB8420BD0B0F1804F08D0D74FE1
:1016C000B84205D0D64FB84202D0D64FB84206D164
:1016D0004DF6FF77394046F48057394305E047F629
:1016E000FF57394044F48057394382830184F0BD69
:1016F000828B4FF6F3731A408283828B0A43828374
:101700007047F0B50C461546002200210026078CD4
:101710004FF6FF6C07EA0C070784828B018C4FF6AB
:10172000FF7707EA04264FF60C773A404FF6FF772B
:1017300007EA03172F433A43B64FB8420ED0B64FCD
:10174000B8420BD0B0F1804F08D0B44FB84205D0AA
:10175000B34FB84202D0B34FB84206D14FF6FF574D
:10176000394046F48077394305E04FF2FF5739405E
:1017700044F48077394382830184F0BD028B4FF2B9
:10178000FF331A400283028B4FF6FF7303EA0123F3
:101790001A4302837047F0B50C461546002200211B
:1017A0000026078C4FF6EF7C07EA0C070784028BB4
:1017B000018C4FF6FF7707EA041640F6FF473A40E0
:1017C0004FF6FF7707EA03373A434FF6FF7707EA0A
:1017D00005273A438F4FB8420ED08F4FB8420BD0F7
:1017E000B0F1804F08D08D4FB84205D08C4FB84231
:1017F00002D08C4FB84206D14FF6DF77394046F021
:101800001007394305E04FF65F77394044F0100781
:10181000394302830184F0BD028B4FF6F3731A4003
:101820000283028B0A4302837047F0B50C461546CB
:1018300000220021068C4FF6FE773E400684028B84
:10184000018C4FF60C7632407E1C06EA03162E43BE
:101850003243704EB0420ED06F4EB0420BD0B0F15A
:10186000804F08D06D4EB04205D06D4EB04202D0D0
:101870006C4EB04206D14FF6FD76314044F0010681
:10188000314305E04FF6F576314044F0010631432F
:1018900002830184F0BD70B505460C465D48854263
:1018A0000ED05D4885420BD0B5F1804F08D05B4823
:1018B000854205D05A48854202D05A48854200D117
:1018C00000E000BF208850B92389A288618828469B
:1018D000FFF7ABFFE1882846FFF79EFF25E0208851
:1018E00004280AD12389A28861882846FFF753FF7C
:1018F000E1882846FFF742FF17E0208808280AD130
:101900002389A28861882846FFF7FBFEE1882846E4
:10191000FFF7EEFE09E02389A28861882846FFF7D9
:10192000A6FEE1882846FFF795FE70BD2DE9F0413F
:1019300005460C4600260127608808B9022600E00B
:101940000026A088012801D1022700E00127208875
:10195000A0B92389A28861882846FFF766FFE1883D
:101960002846FFF759FF23893A4631462846FFF7B4
:1019700012FFE1882846FFF701FF13E02389A288C0
:1019800061882846FFF707FFE1882846FFF7F6FE43
:1019900023893A4631462846FFF747FFE188284623
:1019A000FFF73AFFBDE8F0810A884B881A438B881D
:1019B0001A43CB881A430B891A434B891A438B89E4
:1019C0001A43A0F8442070474FF6FF718180002130
:1019D0000180C180418001727047002101804180F7
:1019E0008180C180018141818181C1817047002155
:1019F00001804180012181800021C18001817047E7
:101A00000021018041808180C180018141818181EB
:101A100070470000002C01400034014000040040E9
:101A200000080040000C004021B1028842F0010291
:101A3000028004E002884FF6FE731A40028070476D
:101A400031B1B0F8442042F40042A0F8442005E04F
:101A5000B0F84420C2F30E02A0F8442070471AB137
:101A600083890B43838102E083898B4383817047A1
:101A70008182704741EA0203A0F8483070471AB1EA
:101A800083890B43838102E083898B438381704781
:101A900001894FF6F8721140018170470A46002112
:101AA00001894FF68F73194011430181704730B59A
:101AB00004460D4629462046FFF7F0FF208940F0F6
:101AC0000700208130BD2DE9F04104460D46164641
:101AD0001F46602D06D13B46012231462046FFF7C6
:101AE0005AFE05E03B46012231462046FFF79DFEA7
:101AF00029462046FFF7D2FF208940F007002081C9
:101B0000BDE8F08130B50C4600210189C9B24FF61D
:101B1000FF7505EA0325154325432943018130BD9F
:101B20002DE9F04105460E461746984600244346E7
:101B30003A4631462846FFF7E5FF2C894FF6F87004
:101B4000044044F007044FF68F70044044F07004E2
:101B50002C81BDE8F081F0B504460D4616461F46BF
:101B60003B46324629462046FFF7CCFF208940F409
:101B700080402081F0BD0185828270470A460021A5
:101B800001884FF68F731940114301807047F0B5FB
:101B90000C4615461E460021002200230189028BB7
:101BA000038C4FF6F877394021434FF6FC473A4013
:101BB00040F201173A434FF6DD773B404FF6FF778F
:101BC00007EA06172F433B43018102830384F0BDDC
:101BD0000A460021018B4FF68F7319401143018390
:101BE00070470A460021018B48F6FF7319404FF6F3
:101BF000FF7303EA02231943018370470A46002159
:101C0000818B4FF68F7319401143818370470A46C9
:101C10000021818B48F6FF7319404FF6FF7303EAEA
:101C2000022319438183704721B1028842F0800268
:101C3000028004E002884FF67F731A4002807047EA
:101C400021B1828842F00402828004E082884FF64B
:101C5000FB731A408280704721B1828842F00802EB
:101C6000828004E082884FF6F7731A4082807047C2
:101C700021B1828842F00102828004E082884FF61E
:101C8000FE731A40828070470A460021018B4FF68E
:101C9000F77319401143018370470A460021018BF5
:101CA0004FF2FF7319404FF6FF7303EA0223194303
:101CB000018370470A460021818B4FF6F773194064
:101CC0001143818370470A460021818B4FF2FF73D5
:101CD00019404FF6FF7303EA0223194381837047CB
:101CE0000A460021018B4FF6FB7319401143018313
:101CF00070470A460021018B4FF6FF3319404FF61B
:101D0000FF7303EA02231943018370470A46002147
:101D1000818B4FF6FB7319401143818370470A464C
:101D20000021818B4FF6FF3319404FF6FF7303EA12
:101D300002231943818370470A460021018B4FF625
:101D40007F7319401143018370470A460021018BBC
:101D5000C1F30E014FF6FF7303EA02231943018317
:101D600070470A460021818B4FF67F73194011435B
:101D7000818370470A460021818BC1F30E014FF623
:101D8000FF7303EA02231943818370470A46002147
:101D9000018C4FF6FD7319401143018470470A46C8
:101DA0000021018C4FF6F7731940114301847047ED
:101DB0000A460021018C4FF6DF7319404FF6FF737E
:101DC00003EA02131943018470470A460021018C7B
:101DD0004FF67F7319404FF6FF7303EA021319435E
:101DE000018470470A460021018C4FF6FF531940C9
:101DF0004FF6FF7303EA02231943018470470A4632
:101E00000021018C4FF2FF7319404FF6FF7303EA74
:101E100002231943018470470A460021018C4DF6C4
:101E2000FF7319404FF6FF7303EA0233194301842D
:101E3000704730B5002301248C40A3B2048C9C432E
:101E40000484048C02FA01F5ADB22C43048430BD45
:101E500030B5002304248C40A3B2048C9C4304843A
:101E6000048C02FA01F5ADB22C43048430BD70B588
:101E70000346002000241846183001258D40ACB2DE
:101E80001D8CA5431D8409B1082909D100EB61000F
:101E9000056825F0700505600568154305600EE0CE
:101EA0000D1FC5F34E052844056825F4E04505607F
:101EB00005684FF6FF7606EA02263543056070BDD9
:101EC00021B1028842F00202028004E002884FF64B
:101ED000FD731A400280704721B1028842F004026B
:101EE000028004E002884FF6FB731A4002807047BC
:101EF00021B1828842F08002828004E082884FF61D
:101F00007F731A408280704702884FF6F7731A4039
:101F1000028002880A430280704782884FF68F73DE
:101F20001A40828082880A438280704702894FF675
:101F3000F8731A40028102890A43028170470289BC
:101F40004FF67F731A40028102890A43028170476B
:101F5000818470478185704781867047018770470B
:101F600081877047A0F84010704702884FF6FF4302
:101F70001A40028002880A43028070470146888E18
:101F800070470146088F70470146888F70470146A9
:101F9000B1F8400070470146888C70470146088DB3
:101FA000704702460020138A0B400BB1012000E06D
:101FB00000207047CA430282704730B502460020B5
:101FC00000230024158A05EA0103958905EA010426
:101FD00013B10CB1012000E0002030BDCA430282E1
:101FE0007047000010B50446FB48844209D1012126
:101FF0008803FFF79FF800214FF48040FFF79AF81D
:1020000032E0F648844209D101214804FFF79FF8E5
:1020100000214FF40030FFF79AF825E0F0488442A1
:1020200009D101218804FFF792F800214FF48020A4
:10203000FFF78DF818E0EB48844209D10121C8046C
:10204000FFF785F800214FF40020FFF780F80BE040
:10205000E548844208D101210805FFF778F80021FE
:102060004FF48010FFF773F810BD2DE9F04786B0EC
:1020700005460E460024A24600BFA1460027B089AF
:1020800000B100BF2F462C8A4CF6FF700440F08848
:1020900004432C82AC894EF6F3100440B088318999
:1020A0000843718908430443AC81AC8A4FF6FF4072
:1020B0000440B0890443AC8201A8FEF7B4FFC648CF
:1020C000874202D1DDF810A001E0DDF80CA0A8895C
:1020D00000F4004040B10AEBCA0000EB0A1031687E
:1020E0004900B0FBF1F807E00AEBCA0000EB0A1068
:1020F00031688900B0FBF1F86420B8FBF0F004010E
:102100002009642101FB1089A88900F4004040B136
:10211000322000EBC900B0FBF1F000F007000443EF
:1021200008E0322000EB09106421B0FBF1F000F070
:102130000F0004432C8106B0BDE8F0874FF4165120
:10214000016000218180C18001810C214181002139
:102150008181704710B502460020108A4FF2FF03BC
:1021600018400B884C8823438C882343CC88234316
:102170001843108210BD0021018041808180C18000
:10218000704721B1828942F40052828104E0828941
:102190004DF6FF731A4082817047F0B50346002464
:1021A00000260025002040F66A17B94200D100BF82
:1021B0001846C1F3421401F01F06012707FA06F57D
:1021C000012C01D10C3004E0022C01D1103000E0D0
:1021D00014301AB107682F43076002E00768AF4365
:1021E0000760F0BD1AB1838A0B43838202E0838AC1
:1021F0008B4383827047028A4FF6F0731A40028243
:10220000028A0A430282704782894FF2FF731A40A2
:10221000828182890A438281704721B1828942F09A
:102220000202828104E082894FF6FD731A408281A6
:102230007047028A4FF6DF731A400282028A0A430D
:102240000282704721B1028A42F48042028204E095
:10225000028A4BF6FF731A4002827047C1F30802EC
:102260008280704701468888C0F3080070478189E2
:1022700041F0010181817047028BD2B20283028B4F
:1022800042EA012202837047028B02F47F420283FA
:10229000028B0A430283704721B1828A42F02002F6
:1022A000828204E0828A4FF6DF731A40828270478E
:1022B00021B1828A42F01002828204E0828A4FF6C3
:1022C000EF731A408282704721B1828A42F008027D
:1022D000828204E0828A4FF6F7731A408282704746
:1022E00021B1828942F40042828103E08289C2F3F3
:1022F0000E028281704721B1828A42F4006282829A
:1023000004E0828A4FF2FF731A4082827047828A09
:102310004FF6FB731A408282828A0A438282704798
:1023200021B1828A42F00202828204E0828A4FF660
:10233000FD731A408282704702460020B1F5007F8B
:1023400000D100BF13880B400BB1012000E000203A
:10235000704701F40072B2F5007F00D100BFCA439C
:102360000280704770B5024600240023002500203B
:1023700040F66A16B14200D100BFC1F3421501F028
:102380001F03012606FA03F3012D02D1968933407B
:1023900006E0022D02D1168A334001E0968A3340CE
:1023A0000C12012606FA04F41688344013B10CB15D
:1023B000012000E0002070BD10B50022002340F68F
:1023C0006A14A14200D100BF0A1201249440A3B2B2
:1023D000DC43048010BD0000003801400044004090
:1023E00000480040004C00400050004000F03AFF20
:1023F00000F04AFB00F0EEFB00F08CFD00F0D0FD99
:1024000000F06DFD00F076FE00F082FE00F004FBAF
:1024100000F01DFF00BFFEE72DE9F0470121F7485E
:10242000FFF7CBFD00287DD0F54800780F2190FB09
:10243000F1F201FB1200002875D1F248006880F427
:102440008070F04908608814091D0860EE4908880A
:1024500001F067F881464FF08B4100F0A9FF044678
:1024600001F078F807464FF06632E84B00F0DEFFE7
:10247000054601F082F8E6490860E349488801F022
:1024800050F881464FF08B4100F092FF044601F076
:1024900061F807464FF06632DC4B00F0C7FF054697
:1024A00001F06BF8DA494860D749888801F039F8BB
:1024B00081464FF08B4100F07BFF044601F04AF863
:1024C00007464FF06632D14B00F0B0FF054601F0F1
:1024D00054F8CF498860CC49C88801F022F8814679
:1024E0004FF08B4100F064FF044601F033F80746DB
:1024F0004FF06632C54B00F099FF054601F03DF8FC
:10250000C349C860C049088901F00BF881464FF003
:102510008B4100F04DFF044601F01CF807464FF0D8
:10252000663201E0E6E11EE0B84B00F07FFF0546B1
:1025300001F023F8B6490861B349488900F0F1FF7A
:1025400081464FF08B4100F033FF044601F002F862
:1025500007464FF06632AD4B00F068FF054601F0CC
:102560000CF8AB494861A64800780F2190FBF1F2C6
:1025700001FB120000287AD1A64803C800F017FE1C
:10258000002875D1A448007805287BDAA1480068A6
:10259000C0680088B43810F15A0F6CDB9D480068A1
:1025A000C0680088B4385A2865DC9A480068C0685A
:1025B0004088B43800285ED596480068C0684088D6
:1025C000B43810F1960F56DD92480068C0688088D4
:1025D000B43800284FDD8F480068C0688088B43860
:1025E000962848DA8B490968C9680988A1F133003F
:1025F00000F08EFF04462146012000F0CBFB854908
:102600000968C968498801F12D0000F081FF04467E
:102610002146022000F0BEFB7E490968C96889880E
:10262000C1F59B7000F074FF04462146032000F0C2
:10263000B1FB78490968C968C988A1F15A0000F05E
:1026400067FF04462146042000F0A4FB73490520DF
:1026500000F0A0FB7149062000F09CFB00207049AF
:1026600008704FF4004067490831086006E065E0F3
:1026700038E007E0FFE7012069490870654800F08D
:10268000C6FD26E064480078072811DC624800781F
:10269000401C614908706349022000F07BFB6249DD
:1026A000032000F077FB6149042000F073FB10E089
:1026B000594800780B2809DC57480078401C5649D7
:1026C00008705B49012000F065FB02E000205249E0
:1026D0000870504803C800F06AFD78B301205549DE
:1026E00008703CE04C480078022811DC4D4902207B
:1026F00000F050FB4C49032000F04CFB4B490420F8
:1027000000F048FB44480078401C434908701EE034
:1027100041480078042812DC4749012000F03AFBC8
:102720003E49022000F036FB4449032000F032FB12
:1027300039480078401C3849087008E00FE03648F6
:102740000078052803D13E49032000F023FB002038
:10275000334908704FF400402A4908310860304876
:10276000007898B1374800880A2190FBF1F201FB0C
:10277000120028B94FF400402249091D086005E005
:1027800000BF4FF400401F49083108602948007815
:1027900098B32D48007805285CD02C480088B0F507
:1027A000FA7F0FD001201749091D08600220091D7A
:1027B00008600420091F086024480088401C234941
:1027C00008804EE021480088B0F5FA7F49D1012009
:1027D0000C49083108600220086000201549087083
:1027E00019480078401C18490870002017490880D3
:1027F00000211748FFF732FD33E02BE000100040C6
:102800002E0000200C1801406C00002066660A4073
:102810005400002038000020290000200000074359
:102820002A0000200000E6420000A0420000B4425E
:10283000000001433200002000005B4300007042B2
:10284000000020422C000020330000203000002037
:102850000048004064480078052802D00020634901
:10286000088061480078052828D16048008828B988
:1028700001205F490860022008601AE05B48008878
:10288000642808D101205A4908600220091F086005
:10289000042008600DE05548008840F62821884251
:1028A00007D10120524908600220086000204E49EB
:1028B00008704E480088401C4C4908804D480088EC
:1028C000962802D100204B4908804B480078F02818
:1028D00002D100204849087046480088401C4549FC
:1028E000088045480078401C43490870012143484E
:1028F000FFF774FBBDE8F08710B540F22551404862
:10290000FFF730FD002852D03D48FFF7ABFC3D49B2
:1029100008704FF48050364908603B480078022820
:1029200038DB3949087800EBD0714910A0EB410140
:1029300059B934490A783449087800EBD071491004
:10294000491E324B23F8112014E02E4A13782E4AE8
:10295000107800EBD0725210521E2C4C34F812201A
:1029600063F31F22284B197801EBD1735B105B1EB8
:1029700024F8132024480078401C23490870084696
:1029800000780E2806D12149214800F024FC0020BF
:102990001D4908701B480078FF2808D11A480078A4
:1029A000022804DA18480078401C1749087010BD46
:1029B00010B5012440F225511648FFF7D3FC88B129
:1029C0001448FFF74FFCC4B2302C05D14FF400403F
:1029D0000749091F086005E0312C03D14FF400407E
:1029E0000349086010BD00003300002030000020C3
:1029F000141801402C0000202E0000200010004080
:102A0000004800403700002034000020480000202B
:102A1000380000200038014008B54FF4A060FDF7F1
:102A200093FC27208DF8000001208DF801008DF81F
:102A300002008DF803006846FDF78BFC4FF4A060A0
:102A4000FDF782FC25208DF8000001208DF80100A3
:102A50008DF802008DF803006846FDF77AFC4FF40C
:102A6000E060FDF771FC36208DF8000000208DF845
:102A7000010003208DF8020001208DF80300684654
:102A8000FDF767FC08BD000000B585B001210820F6
:102A9000FEF736FB01218804FEF73FFB4FF4806010
:102AA000ADF8100018208DF8130003208DF81200E7
:102AB00004A94648FEF768F84FF40060ADF810002E
:102AC00004208DF8130004A94048FEF75DF84FF488
:102AD000E13000900020ADF80400ADF80600ADF83C
:102AE0000800ADF80C000C20ADF80A006946384823
:102AF000FFF7BBFA012240F225513548FFF74DFBA5
:102B000001213348FFF73DFB05B000BD70B5044619
:102B10000D4629462046FFF7A1FB00BF8021204635
:102B2000FFF70AFC0028F9D070BD70B506460C46C8
:102B3000002500BF615D3046FFF7E8FF6D1C605D5A
:102B40000028F7D100BF40213046FFF7F5FB0028F1
:102B5000F9D070BD2DE9F04105460C46260AE7B2D2
:102B600031462846FFF77AFB00BF80212846FFF751
:102B7000E3FB0028F9D039462846FFF76FFB00BF7A
:102B800080212846FFF7D8FB0028F9D0BDE8F08166
:102B900070B504460D46E1B20D48FFF75FFB00BF7C
:102BA00080210B48FFF7C8FB0028F9D0204670BDF4
:102BB00010B5044600BF20210548FFF7BDFB0028E3
:102BC000F9D00348FFF74EFB10BD0000000C014098
:102BD0000048004000B585B001210420FEF790FABE
:102BE00001218803FEF78CFA4FF40070ADF8100055
:102BF00018208DF8130003208DF8120004A9164840
:102C0000FDF7C2FF4FF48060ADF8100004208DF88E
:102C1000130004A91048FDF7B7FF4FF416500090B9
:102C20000020ADF80400ADF80600ADF80800ADF8DE
:102C30000C000C20ADF80A0069460848FFF715FAA9
:102C4000012240F225510548FFF7A7FA0121034868
:102C5000FFF797FA05B000BD0008014000380140B9
:102C600008B501211420FEF74BFA4FF41060ADF8BF
:102C7000000018208DF8030003208DF8020069463B
:102C80009A48FDF781FF4FF47070ADF800001820EE
:102C90008DF8030003208DF8020069469448FDF783
:102CA00073FF08BD00B587B001214FF42050FEF737
:102CB00027FA44F61F60ADF814004720ADF8100065
:102CC0000020ADF81600ADF812008DF8180004A928
:102CD0008848FEF74DFB6020ADF800000120ADF8FC
:102CE00002000020ADF8040040F2DC50ADF8060010
:102CF0000020ADF80800ADF80A004FF48070ADF880
:102D00000C000020ADF80E0069467A48FEF76DFB16
:102D100008217848FEF7B8FF69467648FEF73FFC81
:102D200008217448FEF7CFFF01217248FEF77CFEB0
:102D300001217048FEF784FE04A96F48FEF718FBD6
:102D400069466D48FEF751FB08216B48FEF79CFF72
:102D500069466948FEF78BFB08216748FEF79DFF2F
:102D600069466548FEF7D0FB08216348FEF7A2FFDD
:102D700069466148FEF713FC08215F48FEF7A3FF90
:102D800001215D48FEF750FE01215B48FEF758FE29
:102D900007B000BD2DE9F04704460D46072C1DD2B3
:102DA000DFE804F09A041D364F6881005349284635
:102DB00000F0C6FA8246524900F0FAFA81465149BB
:102DC00000F0C4FA8046504900F068FA074600F067
:102DD000ADFB86B231464848FFF7BEF87CE0474974
:102DE000284600F0ADFA8246454900F0E1FA8146F6
:102DF000444900F0ABFA8046434900F04FFA0746D9
:102E000000F094FB86B231463B48FFF7A7F863E039
:102E10003A49284600F094FA8246394900F0C8FA47
:102E20008146384900F092FA8046374900F036FA78
:102E3000074600F07BFB86B231462F48FFF790F83B
:102E40004AE03249284600F07BFA8246304900F0D9
:102E5000AFFA81462B4900F079FA80462A4900F002
:102E60001DFA074600F062FB86B231462248FFF7A2
:102E700079F831E02149284600F062FA824620497B
:102E800000F096FA81461F4900F060FA80461E491C
:102E900000F004FA074600F049FB86B231461548B7
:102EA000FFF75AF818E01549284600F049FA82461B
:102EB000134900F07DFA8146124900F047FA804636
:102EC000114900F0EBF9074600F030FB86B23146BD
:102ED0000848FFF747F800BF00BFBDE8F08710B50E
:102EE000FFF7BEFEFFF7DEFE10BD00000008014048
:102EF00000100140002C0140003401400000074355
:102F0000000087430000FA440080BB440000B44244
:102F10000000344308B501214020FEF7F1F84FF4DA
:102F20008070ADF8000010208DF8030003208DF8AC
:102F3000020069460A48FDF727FE4FF48050ADF8BD
:102F4000000069460648FDF71FFE4FF480710448F3
:102F5000FDF7C9FE4FF480510148FDF7C2FE08BDE0
:102F6000001801400EB501211020FEF7D6F842F2FC
:102F70000F70ADF804004720ADF8000069460A481C
:102F8000FEF7F6F901210848FFF714F8012211466F
:102F90000548FEF764FD01210348FEF745FD0EBD1F
:102FA00010B5FFF7DFFF10BD0010004008B501218C
:102FB0001020FEF7A5F83F20ADF8000000208DF8A6
:102FC000030069464E48FDF7DFFD08BD00B591B02E
:102FD00001210846FEF787F801214802FEF790F824
:102FE0004848FDF747FC48480690484807900020AD
:102FF00008900620099000200A9080200B90400045
:103000000C9080000D9020200E9000020F90002068
:10301000109006A93B48FDF7CFFC01213948FDF788
:10302000F6FC0020019001208DF808008DF80900C1
:103030004FF4602003900020049006208DF81400C7
:1030400001A931484C38FDF714FA4FF44040FDF720
:10305000BBFF052301220A212B484C38FDF7A1FABA
:10306000052302220B2128484C38FDF79AFA052344
:1030700003220C2124484C38FDF793FA052304223F
:103080000D2121484C38FDF78CFA05231A460E21F4
:103090001D484C38FDF785FA052306220F211A48F2
:1030A0004C38FDF77EFA012117484C38FDF718FA25
:1030B000012115484C38FDF708FA13484C38FDF744
:1030C00026FA00BF10484C38FDF726FA0028F9D13F
:1030D0000D484C38FDF72AFA00BF0B484C38FDF775
:1030E0002AFA0028F9D1012107484C38FDF72DFABA
:1030F00011B000BD10B5FFF759FFFFF767FF10BD16
:1031000000100140080002404C2401406C000020E7
:1031100008B501214020FDF7F3FF4FF40040ADF862
:10312000000010208DF8030003208DF8020069468E
:103130000448FDF729FD4FF400410248FDF7D3FD97
:1031400008BD00000018014010B50446102000F032
:103150002DFB60602060206808B9002010BD0020B1
:103160002168C8600120F9E710B5044607E020682F
:10317000C0686060206800F0F1FA60682060206834
:103180000028F4D1012010BD70B5044620686060AD
:103190002068C56800202168C86004E02E46ED68FC
:1031A000304600F0DBFA002DF8D1012070BD03B5E8
:1031B000DDE90001884201D101200CBD0020FCE7BF
:1031C00003B50022009901E0521CC96801988842A9
:1031D000FAD1D0B20CBD2DE9F04106460F461020C1
:1031E00000F0E4FA054615B90020BDE8F08100249E
:1031F00004E037F8140025F81400641C062CF8DBF2
:103200000020E8607068C56075600120EDE770B56A
:103210000446D4E90001884201D1002070BD206835
:10322000C568E8682168C8606068A84201D1206864
:103230006060284600F092FA0120EFE703B500989D
:10324000C16800E0C9680029FCD101200CBD10B59F
:103250000348FFF779FF08B9002010BD0120FCE703
:103260003800002008B501214020FDF749FF072064
:10327000ADF8000010208DF8030003208DF8020047
:1032800069460548FDF780FC0120034914310860B8
:103290000220086008BD000000180140F0B480EA78
:1032A0000102D40F4200B2EB410F02D2024608469F
:1032B00011464A0042D0C30DDDB2C1F3C752AD1A68
:1032C000202D35DAC1F3160141F4000204B1524257
:1032D000C5F1200602FA06F12A411044B3EBD05F93
:1032E00023D0C4B1012DA0EBC35009DCF0BC4FF0DA
:1032F000004202EAC352DBB200F5000000F062B9FE
:10330000400000F1807000EBC350A0F1807040EAF3
:10331000D170490009E0490841EAC071A0EBC350EF
:1033200000F50000400800EBC350F0BC00F041B9CC
:103330006142012202EB4101001BF6E7F0BC70473D
:1033400081F00041AAE780F00040A7E780EA01028F
:1033500010B502F00043400022D04A001FD0010EF9
:1033600001EB1261C0F35600C2F3560240F40000B4
:1033700042F40002A0FB022000047F39140400D0B4
:10338000401C50EA124001D44000491EC2B20C0653
:1033900004EBD010401C4008802A02D003E000203B
:1033A00010BD20F00100002900DA0020184310BDF4
:1033B00030B480EA010202F0004530F0004221F012
:1033C000004013D090B1C30DD40DC2F31601C0F369
:1033D0001600E41A41F4000140F400027D349142E9
:1033E00001D3641C00E04900002C02DA30BC00204C
:1033F00070474FF400000023914201D3891A034320
:1034000040084FEA4101F7D151B1914202D14FF04A
:10341000004105E002D24FF0010101E06FF001012F
:1034200003EBC450284430BC00F0C3B82DE9FE4F74
:1034300081EA030404F0004421F0004100944FF0BD
:10344000000B23F0004350EA01045ED052EA03046B
:103450005BD0C3F30A54C1F30A552C44A4F2F334ED
:103460000194A0FB0254C1F3130141F48011C3F392
:10347000130343F4801301FB024400FB034E840A50
:10348000970A44EA815447EA8357A4FB07680295E8
:103490008D0A05FB07854FEA932C04FB0C54270586
:1034A000029D4FEA065847EA1637B5EB08056EEB62
:1034B000070C870E920E47EA811742EA8312A7FB98
:1034C0000201B6EB0B0164EB00042B0D43EA0C3355
:1034D0005E1844EB1C50DA465146E7FB0201C5F387
:1034E00013044FEA0B3343EA14534FEA0432019CAE
:1034F00043EA0603A4F10C040294009CCDE900B455
:1035000000F09DF803B0BDE8F08F00200146F9E718
:10351000C10F80EAE0700844CA079623002100F03A
:1035200051B896230022114600F04CB820F000401C
:10353000C10DC0F3160040F400007F2901DA00201D
:103540007047962903DCC1F19601C840704796394F
:103550008840704700F0004230F000400AD0C10DB2
:1035600001F56071C0F3160042EA0151C20840073C
:103570001143704700200146704701F0004330B40A
:1035800021F0004150EA010206D00A0DA2F5607256
:10359000C1F31301002A02DC30BC00207047440F45
:1035A00044EAC104C100E01830BC00EBC250AFF3E4
:1035B00000800029A8BF7047401C490008BF20F0C8
:1035C0000100704710B4B0FA80FC00FA0CF050EA29
:1035D000010404BF10BC704749B1CCF1200421FAAA
:1035E00004F411FA0CF118BF012121430843A3EBA5
:1035F0000C01CB1D4FEA00614FEA102042BF0020B2
:1036000010BC704700EBC35010440029A4BF10BC8D
:103610007047401C490008BF20F0010010BC7047F3
:1036200010B5141E73F1000408DA401C41F10001CA
:1036300092185B411A4301D120F0010010BD2DE921
:10364000F04D92469B4611B1B1FA81F202E0B0FA18
:1036500080F22032904600F053F804460F4640EACC
:103660000A0041EA0B0153465A46084313D011465B
:1036700053EA010019D0C8F14002504600F04FF85B
:1036800005460E4650465946424600F039F8084372
:1036900005D0012004E020463946BDE8F08D002029
:1036A000054346EAE0762C4337430A986305E40A6B
:1036B000A0EB08000022FD0A44EA47540A3002D574
:1036C00000200146E9E7010510196941DDE90845D7
:1036D00000196941BDE8F04DA2E70000064C074D16
:1036E00006E0E06840F0010394E8070098471034D2
:1036F000AC42F6D3FCF720FD183800083838000833
:10370000202A04DB203A00FA02F1002070479140A1
:10371000C2F1200320FA03F3194390407047202A96
:1037200004DB203A21FA02F00021704721FA02F36B
:10373000D040C2F12002914008431946704702E090
:1037400008C8121F08C1002AFAD17047704700202C
:1037500001E001C1121F002AFBD1704710B50028FB
:1037600021D0114B0022001F196803E0814203D8C9
:103770000A4649680029F9D152B11368841A9C425B
:1037800004D1006818441060104602E0506000E068
:10379000186039B102680B1A934203D10B681A44BE
:1037A00002604968416010BD40000020F0B50B3058
:1037B000154D20F007010024144A0FE003688B42E6
:1037C0000BD38B4205D95E1A43184768C3E90067DB
:1037D00000E04368136002C004E0021D1068002886
:1037E000ECD12046002802D1286808B10020F0BDA5
:1037F000064A07481060074A121A22F00702C0E979
:10380000002401202860D7E7440000204000002069
:103810007C0000207880002038380008000000205C
:10382000480000003E3700088038000848000020AB
:10383000308400004E37000800A24A040000000057
:103840000000000001020304060708090000000050
:103850000102030401020304060708090204060822
:103860000000000000000000000000000000000058
:103870000000000000000000000000000000000048
:0400000508000131BD
:00000001FF
